:100000000C946A010C9492010C9492010C940112CC
:100010000C9401120C9401120C9492010C94920114
:100020000C9492010C9492010C9492010C94920104
:100030000C9492010C9492010C9492010C949201F4
:100040000C9498100C9492010C9466100C9440102F
:100050000C9492010C9492010C9492010C949201D4
:100060000C94E2100C9492010A3C2D20000A3C2DC5
:1000700020000000000023002600290000000008E6
:10008000000201000003040700000000000000005F
:1000900000000000240027002A00415445002D2DB7
:1000A0002D2D2D2D2D2D2D2D2D2D2D2D2D2D004199
:1000B0005449002D2D2D2D2D2D2D2D2D2D2D2D2D5A
:1000C0002D2D2D0041542B474150474554434F4E51
:1000D0004E004154493D34002A2A2A2A2A2A2A2A33
:1000E0002A2A2A2A2A2A2A2A2A2A2A2A2A2A2A2A70
:1000F0002A2A2A2A2A2A00537769746368696E6754
:1001000020746F2044415441206D6F646521004389
:1001100068616E6765204C45442061637469766947
:10012000747920746F204D4F4445002A2A2A2A2AC8
:100130002A2A2A2A2A2A2A2A2A2A2A2A2A2A2A2A1F
:100140002A2A2A2A2A2A2A2A2A005468656E206125
:10015000637469766174652F7573652074686520B2
:1001600073656E736F72732C20636F6C6F72207087
:1001700069636B65722C2067616D6520636F6E74B7
:10018000726F6C6C65722C206574632100506C6515
:100190006173652075736520416461667275697469
:1001A00020426C75656672756974204C45206170DB
:1001B0007020746F20636F6E6E65637420696E20AB
:1001C000436F6E74726F6C6C6572206D6F64650046
:1001D0004F4B2100436F756C646E27742066696E07
:1001E0006420426C756566727569742C206D616B54
:1001F000652073757265206974277320696E2043CA
:100200006F4D6D616E44206D6F64652026206368BC
:1002100065636B20776972696E673F00496E697428
:1002200069616C6973696E672074686520426C75DA
:10023000656672756974204C45206D6F64756C65D8
:100240003A20002D2D2D2D2D2D2D2D2D2D2D2D2D0B
:100250002D2D2D2D2D2D2D2D2D2D2D2D2D2D2D2DCE
:100260002D2D2D2D2D2D2D2D2D2D2D2D004164616C
:10027000667275697420426C756566727569742062
:1002800041707020436F6E74726F6C6C65722045A4
:1002900078616D706C6500200030003078000102DC
:1002A0000408102040800102040810200102040804
:1002B000102000000000250028002B000404040486
:1002C0000404040402020202020203030303030300
:1002D0002D12BC1C11241FBECFEFD8E0DEBFCDBF56
:1002E00012E0A0E0B1E0EEE8F4E402C005900D9267
:1002F000AC33B107D9F726E0ACE3B2E001C01D9200
:10030000AE30B207E1F711E0C9E6D1E004C02197B1
:10031000FE010E94DD20C836D107C9F70E9495135F
:100320000C943A220C940000E091F405F091F5054C
:100330008E179F0798F53091FA05332361F0639F7C
:10034000B0011124672F349FA0011124452F329F43
:1003500090011124232F30910006E091FB05F091CC
:10036000FC055091FD0535131AC0DC01AA0FBB1F17
:100370008A0F9B1F8E0F9F1FE091FD05E80FF92F3D
:10038000F11D6083E091FE05E80FF92FF11D408318
:100390003091FF05830F911DFC0120830895880F84
:1003A000991F880F991F8E0F9F1FFC01E30FF11DEE
:1003B0001082E2CF982F2091040481E0213208F0CE
:1003C00043C08091E0038111FCCF8091030432E0AF
:1003D0003093E0039093DF039FEF9093DE0310923E
:1003E000DD032093DC03A3EEB3E0ECEBF3E090E05D
:1003F000291331C01092BB039091BB03880F892B46
:100400008093BB038091BA03813049F51092BA03FF
:100410008091BB038093BB008091BC0083FDF8CF2B
:1004200085EC8093BC008091E0038230E1F3809101
:10043000DE038F3FB1F08091DE038032A1F0809126
:10044000DE03803391F084E01092E2031092040402
:100450001092E10308953D9131939F5FC9CF85EEDE
:10046000E0CF80E0F1CF82E0EFCF83E0EDCF8F925D
:100470009F92AF92BF92CF92DF92EF92FF92CF9373
:100480002091F4053091F50582179307E8F54B01AB
:10049000AA24BB24C82DC52ED62EE72EFF24BC2DA2
:1004A000A42F2091FA05222361F0829E400111249D
:1004B000C92D2C9D60011124BD2D249FF001112414
:1004C000AF2FE0910006E090FB05F090FC05309125
:1004D000FD05E31323C09C01220F331F820F931FDE
:1004E0008E0D9F1DE091FD05E80FF92FF11DC083D2
:1004F000E091FE05E80FF92FF11DB0832091FF0573
:10050000820F911DFC01A083CF91FF90EF90DF90AF
:10051000CF90BF90AF909F908F900895880F991FB4
:10052000880F991F8E0D9F1D472F55276627772708
:10053000222349F030E0249F7001259FF00C349F66
:10054000F00C11244F2DE80FF92FF11D4083CACF75
:10055000A82FB0E011962FEF30E00E94D620982F00
:10056000872F762F6627662777279927089508957E
:100570000895DC01ED91FC910190F081E02D09944A
:10058000EF92FF920F931F93CF93DF938C017B0128
:10059000D0E0C0E0F701EC0FFD1F6491662361F02D
:1005A000D801ED91FC910190F081E02DC8010995F1
:1005B000892B11F02196EECFCE01DF91CF911F91C3
:1005C0000F91FF90EF900895AF92BF92CF92DF927C
:1005D000EF92FF920F931F93CF93DF936C017B01F8
:1005E0008B01040F151FEB015E01AE18BF08C01789
:1005F000D10759F06991D601ED91FC910190F081FC
:10060000E02DC6010995892B79F7C501DF91CF91BE
:100610001F910F91FF90EF90DF90CF90BF90AF9020
:100620000895FC01538D448D252F30E0842F90E0F8
:10063000821B930B541710F0CF96089501970895DD
:10064000FC01918D828D981761F0A28DAE0FBF2FA6
:10065000B11D5D968C91928D9F5F9F73928F90E0FC
:1006600008958FEF9FEF0895FC01918D828D98176B
:1006700031F0828DE80FF11D858D90E008958FEFA8
:100680009FEF0895FC01918D228D892F90E0805C71
:100690009F4F821B91098F739927089585E094E0FD
:1006A0000E94420321E0892B09F420E0822F089563
:1006B00080E090E0892B29F00E944E0381110C9478
:1006C00000000895FC01A48DA80FB92FB11DA35AF5
:1006D000BF4F2C91848D90E001968F739927848F62
:1006E000A689B7892C93A089B1898C918370806485
:1006F0008C93938D848D981306C00288F389E02D26
:1007000080818F7D80830895EF92FF920F931F93D6
:10071000CF93DF93EC0181E0888F9B8D8C8D9813B4
:100720001AC0E889F989808185FF15C09FB7F894C0
:10073000EE89FF896083E889F9898081837080640C
:1007400080839FBF81E090E0DF91CF911F910F9157
:10075000FF90EF900895F62E0B8D10E00F5F1F4F66
:100760000F731127E02E8C8D8E110CC00FB607FC75
:10077000FACFE889F989808185FFF5CFCE010E9403
:100780006203F1CFEB8DEC0FFD2FF11DE35AFF4F0C
:10079000F0829FB7F8940B8FEA89FB898081806291
:1007A000CFCFCF93DF93EC01888D8823B9F0AA894E
:1007B000BB89E889F9898C9185FD03C0808186FD1C
:1007C0000DC00FB607FCF7CF8C9185FFF2CF80816B
:1007D00085FFEDCFCE010E946203E9CFDF91CF917B
:1007E0000895833081F028F4813099F08230A9F0A7
:1007F00008958730A9F08830C9F08430B1F4809131
:1008000080008F7D03C0809180008F77809380006F
:10081000089584B58F7784BD089584B58F7DFBCF0F
:100820008091B0008F778093B00008958091B000E0
:100830008F7DF9CFCF93DF93282F30E0F901E45873
:10084000FF4F8491F901E256FD4FD491F901E45430
:10085000FD4FC491CC23A1F081110E94F103EC2F34
:10086000F0E0EE0FFF1FEE58FF4FA591B491EC9111
:10087000ED2381E090E009F480E0DF91CF910895CD
:1008800080E090E0FACF1F93CF93DF93282F30E0E2
:10089000F901E458FF4F8491F901E256FD4FD491DC
:1008A000F901E454FD4FC491CC23A9F0162F811116
:1008B0000E94F103EC2FF0E0EE0FFF1FEE54FD4F0E
:1008C000A591B4918FB7F894EC91111108C0D0950F
:1008D000DE23DC938FBFDF91CF911F910895DE2B34
:1008E000F8CF1092B9031092B8031092E20310925D
:1008F00004041092E00381E08093DF031092BA03B6
:1009000061E082E10E94430461E083E10E944304CC
:10091000E9EBF0E080818E7F808380818D7F808312
:1009200088E48093B80085E48093BC0087EB92E074
:100930009093B7038093B60388EB92E09093B5034E
:100940008093B4030895CF93DF9390E0FC01E256C7
:10095000FD4F249184549D4FFC0184918823D1F054
:1009600090E0880F991FFC01E057FF4FA591B491CB
:10097000FC01EE54FD4FC591D49161110EC09FB79B
:10098000F8948C91E22FE0958E238C932881E223BA
:10099000E8839FBFDF91CF9108958FB7F894EC91D2
:1009A000E22BEC938FBFF6CF3FB7F894809186028D
:1009B00090918702A0918802B091890226B5A89BE8
:1009C00005C02F3F19F00196A11DB11D3FBFBA2FE1
:1009D000A92F982F8827BC01CD01620F711D811DA1
:1009E000911D42E0660F771F881F991F4A95D1F726
:1009F00008950F931F93CF93DF93CDB7DEB7299759
:100A00000FB6F894DEBF0FBECDBF8091FB0590916D
:100A1000FC05892B09F467C00E94D40400910106EB
:100A2000109102062091030630910406601B710BA1
:100A3000820B930B6C3271408105910568F3F89439
:100A40008091F6059091F7059A838983E091FB05E3
:100A5000F091FC05DF011196808189879091F20564
:100A6000E0910506F091060680910706992309F4A6
:100A700045C09081982B98879081809589238F839A
:100A80008F818C8388E08B8358856F8149853B817A
:100A90002C8189819A81508347FD252F3A952083A7
:100AA000262F39F0441F00C000006083000000C002
:100AB000F2CF38E04D9160830000019761F7F09329
:100AC0000606E093050649873B832C839A83898336
:100AD00078940E94D4046093010670930206809378
:100AE00003069093040629960FB6F894DEBF0FBE56
:100AF000CDBFDF91CF911F910F9108959081982BD9
:100B000098879081809589238F838F818E8388E059
:100B10008D8358856F8149853D812E8189819A8198
:100B2000508347FD252F00C000C0208300C000C0B7
:100B300000C000C000C060830000262F3A9541F03D
:100B4000441F000000C000C000C000C000C0E8CFCB
:100B500038E04D9100C0608300C0019709F7F09321
:100B60000606E093050649873D832E83AFCF8F921B
:100B70009F92AF92BF92CF92DF92EF92FF926B0162
:100B80007C010E94D4044B015C01C114D104E10436
:100B9000F104B9F00E94D404681979098A099B0903
:100BA000683E73408105910580F321E0C21AD108A7
:100BB000E108F10888EE880E83E0981EA11CB11CA4
:100BC000E4CFFF90EF90DF90CF90BF90AF909F90D9
:100BD0008F9008952FB7F8946091820270918302EC
:100BE00080918402909185022FBF089585ED8093B6
:100BF000BC008091BC0084FDFCCF1092E0030895FE
:100C000020915E02260F3327331F21323105ECF489
:100C10002091E003FC0190E080E0243069F082E064
:100C20000895A0915E022191AC01425C5D4FA40F3A
:100C3000B52FB11D2C930196861798F380915E0213
:100C4000680F60935E0280E0089581E00895089542
:100C5000E091B9038091B803E81730F4F0E0EC5666
:100C6000FC4F808190E008958FEF9FEF0895909161
:100C7000B9038091B8032FEF3FEF981748F4E92F9D
:100C8000F0E0EC56FC4F208130E09F5F9093B90379
:100C9000C90108958091B8039091B903891B990BFC
:100CA0000895CF92DF92EF92FF920F931F93CF930D
:100CB000DF937C01CB018A012091E103222389F09B
:100CC000EB016B01C40ED51ECC15DD0569F06991F1
:100CD000D701ED91FC910190F081E02DC7010995BC
:100CE000F3CF642F0E940006C801DF91CF911F91BE
:100CF0000F91FF90EF90DF90CF900895CF93DF9307
:100D00001F92CDB7DEB769832091E1032223F9F06A
:100D100020910404203258F021E030E0FC013383BC
:100D2000228390E080E00F90DF91CF910895809131
:100D3000E203E82FF0E0ED51FC4F998190838F5F43
:100D40008093E2038093040481E090E0ECCF61E0C3
:100D5000CE0101960E940006F7CF682F82EA94E048
:100D60000C947E06CF93C42FFC01808191E0909378
:100D7000E103809303041092E2031092040482EAD8
:100D800094E00E947E066C2F82EA94E00E947E0628
:100D900081E0CF910C94DA010F931F93CF93DF93EF
:100DA000042FD52F122FC32FFC01808191E0909347
:100DB000E103809303041092E20310920404F4E030
:100DC0006F9FB00111246A5F7F4F82EA94E00E9416
:100DD0007E06802F9D2F0E94AD068D2F90E00E94F1
:100DE000AD06812F9C2F0E94AD068C2F90E00E94B3
:100DF000AD0681E0DF91CF911F910F910C94DA0144
:100E0000FC0180E1689F900111248381948150E06E
:100E100040E06081CD960C94CC068F929F92AF9269
:100E2000BF92CF92DF92EF92FF920F931F93CF93D7
:100E3000DF938C010F591F4FF80120812F3FA1F440
:100E40006EBD00000DB407FEFDCFCEB58C2FDF9137
:100E5000CF911F910F91FF90EF90DF90CF90BF90B7
:100E6000AF909F908F900895D62FC0E027E0E22E9C
:100E7000F12CCC24C394D12C5C01F2E6AF0EB11C52
:100E80004C0123E6820E911CCC0F60E0F8018081BA
:100E90000E944304B6010E2C01C0660F0A94EAF7C3
:100EA0006D23F50180810E94430461E0F801808197
:100EB0000E944304F40180810E941A04892B09F0E6
:100EC000C160F1E0EF1AF108F8F660E0F801808106
:100ED0000E944304BBCFEF92FF920F931F93CF93D7
:100EE000DF937C01EB018B01040F151FC017D107A5
:100EF00031F06881C7010E940D078993F7CFDF9118
:100F0000CF911F910F91FF90EF900895FC01EB544A
:100F1000FF4F178216821186108613861286089557
:100F2000623098F4DC011C962C911C97261302C0A9
:100F300081E00895FC0164876111FACFED91FC9185
:100F40000680F781E02D0995F3CF80E0089508959C
:100F50008CBD9DBD0895CF92DF92EF92FF92CF930B
:100F6000DF93EC010E94EA05C880D980EA80FB800B
:100F70006C197D098E099F0921E0CC80DD80EE800F
:100F8000FF806C157D058E059F0508F420E0822FFB
:100F9000DF91CF91FF90EF90DF90CF90089508956B
:100FA00090E080E00895CF93DF93EC018B819C81EA
:100FB00030E020E050E040E06A81CD960E94CC060F
:100FC0008B819C8130E020E040E050E16981CD964A
:100FD000DF91CF910C94CC06CF93DF93EC0162307C
:100FE00041F06430E1F0613059F5DF91CF910C941C
:100FF000D3078B819C8130E020E050E040E06981A4
:10100000CD960E94CC068B819C8130E020E040E0B0
:1010100050E16A81CD96DF91CF910C94CC068B8103
:101020009C8130E020E050E040E06981CD960E9454
:10103000CC068B819C8130E020E050E040E0E9CF9D
:10104000DF91CF9108950F931F93CF93DF938C017E
:1010500082EA94E0F801918380830E947104E801A0
:10106000ED960E94710440E060E0CE010E94B2065D
:1010700080E496E0F8019483838385AD91E09093BA
:10108000E103809303041092E2031092040460E0F1
:1010900082EA94E00E947E0681E00E94DA01F80173
:1010A00085AD9091E0039111FCCF91E09093E00326
:1010B0009093DF032FEF2093DE031092DD03109255
:1010C000DC039093BB039091BB03880F892B809323
:1010D000BB038091BA03813009F056C01092BA0365
:1010E0008091BB038093BB008091BC0083FDF8CF4F
:1010F00085EC8093BC008091E0038130E1F3809126
:10110000DD0391E0811102C09091DD03ECEBF3E08F
:10111000A4E9B3E080E0891339C01092B903809349
:10112000B80382EA94E00E943706182F482F4F76C2
:10113000406160E0CE010E94B20643E06EEFCE0156
:101140000E94B206412F60E0CE010E94B20665E027
:1011500070E080E090E00E94B705412F416A60E0B6
:10116000CE010E94B20610E030E020E050E040E006
:10117000612FCE010E94CC061F5F1031A9F7DF91CD
:10118000CF911F910F91089585EEB3CF21912D93AB
:101190008F5FC1CF0E940822FB0101900020E9F778
:1011A0003197AF01461B570BDC01ED91FC9102809A
:1011B000F381E02D09948F929F92AF92BF92EF92AC
:1011C000FF920F931F93CF93DF93CDB7DEB7A19715
:1011D0000FB6F894DEBF0FBECDBF7C01FA01CB0184
:1011E00019A2223008F42AE08E010F5D1F4F822ED3
:1011F000912CB12CA12CBF01A50194010E94231FA9
:10120000F901CA016A300CF5605DD8016E938D0159
:10121000232B242B252B79F790E080E0109721F0E9
:10122000BD01C7010E94CC08A1960FB6F894DEBF9D
:101230000FBECDBFDF91CF911F910F91FF90EF9027
:10124000BF90AF909F908F900895695CDECFCF9252
:10125000DF92EF92FF920F931F93CF93DF93EC01F6
:101260006A017B016DE20E94B9028C014427552777
:10127000BA014C195D096E097F092AE0CE010E946E
:10128000DB08800F911FDF91CF911F910F91FF908D
:10129000EF90DF90CF9008954F925F926F927F9280
:1012A0008F929F92AF92BF92CF92DF92EF92FF9276
:1012B000CF936B017C01842EAC019B010E94A9207D
:1012C0006EE371E0811126C026013701E89477F8BA
:1012D0002FEF3FEF4FE75FE7C301B2010E94A92064
:1012E00081110CC02FEF3FEF4FE75FE7C301B20161
:1012F0000E94EF1D62E471E0181664F02FEF3FEFDB
:101300004FE75FE4C701B6010E94A42018169CF4C1
:1013100066E471E085E094E0CF91FF90EF90DF907C
:10132000CF90BF90AF909F908F907F906F905F9085
:101330004F900C94CC082FEF3FEF4FE75FECC701C5
:10134000B6010E94EF1D87FDE3CF20E030E0A90148
:10135000C701B6010E94EF1DB12CA12C87FF0AC066
:101360006DE285E094E00E94B9025C01F7FAF09426
:10137000F7F8F094C82D60E070E080E09FE3912CD6
:1013800020E030E040E251E40E940320939498145E
:10139000B8F3A70196010E94971F2B013C010E9400
:1013A00075206B017C010E94F41D9B01AC01C301FF
:1013B000B2010E94961F2B013C012AE0B701A60151
:1013C00085E094E00E94DB087C016EE285E094E019
:1013D0000E94B902E80EF91EEA0CFB1CC15028F16C
:1013E00020E030E040E251E4C301B2010E94551E0A
:1013F0002B013C010E9475204B01B12CA12C2AE04D
:10140000B501A40185E094E00E94DB08E80EF91E16
:10141000C501B4010E94F41D9B01AC01C301B201DE
:101420000E94961F2B013C01D9CFC701CF91FF909D
:10143000EF90DF90CF90BF90AF909F908F907F9074
:101440006F905F904F9008956EE471E00C94CC081B
:10145000CF93DF93D0E0C0E0009731F0BC0185E08E
:1014600094E00E94CC08EC0185E094E00E94240AFC
:101470008C0F9D1FDF91CF9108950F931F93CF93F2
:10148000DF93EC010E94C0028C01CE010E94240A6D
:10149000800F911FDF91CF911F910F9108956115DA
:1014A000710511F00C94CC0890E080E00895CF9283
:1014B000DF92EF92FF920F931F93CF93DF938C01F4
:1014C0006B017A01D0E0C0E0E114F104C1F0D80171
:1014D000ED91FC910084F185E02DC8010995892BDF
:1014E000C1F1D801ED91FC910284F385E02DC80192
:1014F00009958D3061F38A3011F5209741F3F6019B
:10150000EC0FFD1F1082F8018585882371F020976C
:1015100061F0B60185E094E00E944F0AC034D10525
:1015200020F485E094E00E94240ACE01DF91CF915F
:101530001F910F91FF90EF90DF90CF900895F601EB
:10154000EC0FFD1F80832196C034D10508F4BFCF76
:10155000D6CFB1E0EB1AF10891F261E070E080E0E3
:1015600090E00E94B705B0CFFC0144815581BC01D9
:10157000625F7F4F0C94570ACF93DF93EC012E816B
:101580003F818A819B812817390719F48D8188232F
:1015900029F14C8150E028853985429FC001439F45
:1015A000900D529F900D112428813981820F931F35
:1015B0000E941A22888599852A813B810196B9016A
:1015C0000E94AE20998788878E819F8128173907CE
:1015D00041F4888599859B878A8781E0DF91CF9147
:1015E00008958E819F8101969F838E83F6CF2F92DF
:1015F0003F924F925F926F927F928F929F92AF92A3
:10160000BF92CF92DF92EF92FF920F931F93CF93EF
:10161000DF93CDB7DEB7A2970FB6F894DEBF0FBE4B
:10162000CDBF8C013C0185EB680E711C94E1292E25
:10163000FE013196FE8FED8FC801815A9F4F98A30E
:101640008F8FF801EF59FF4FFAA3E9A36801FEE578
:10165000CF0ED11C23EC422E512CF3012681378171
:1016600082819381821B930B409708F4F5C0ED8D26
:10167000FE8D822D11928A95E9F7F801848095807C
:10168000A680B780880C991CAA1CBB1C0E94EA0586
:101690006D8B7E8B8F8B988F898E9A8EAB8EBC8E46
:1016A000EF8DF8A180810E941A04892B09F5CE01E3
:1016B00045960E94AB07882399F3312C832DA2967F
:1016C0000FB6F894DEBF0FBECDBFDF91CF911F9153
:1016D0000F91FF90EF90DF90CF90BF90AF909F90D1
:1016E0008F907F906F905F904F903F902F900895D4
:1016F000E9A1FAA180818F3F31F48091AE049091ED
:10170000AF040E94A80760E0F60180810E944304B4
:10171000F80184809580A680B7800E94EA056D8BD1
:101720007E8B8F8B988F898E9A8EAB8EBC8ECE01DE
:1017300045960E94AB0781111BC06FEFC8010E9444
:101740000D0789838E3F71F461E0F60180810E946C
:101750004304C2010197F1F760E0F60180810E9425
:10176000430402C08F3F81F389818E5F8230F8F29B
:101770008981803271F0803861F0CE0145960E94F7
:10178000AB07811106C06FEFC8010E940D07898366
:10179000EFCFCE0145960E94AB07882359F1312C3B
:1017A00061E0F60180810E944304332009F485CF73
:1017B0008C818F77D9F0E82EF12CE114F104B1F08F
:1017C0004E01F5E08F0E911CB12CA12CB401C30188
:1017D0000E94BC0A882351F08FEFA81AB80AF301BF
:1017E0008481880E911CAE14BF0480F38C8187FD28
:1017F00034CF64CF43E050E06FEF70E0CE0102964B
:101800000E94232243E050E0BE016E5F7F4FC8017B
:101810000E946B078A819B812981203809F4BFCF00
:101820009A50039708F0BBCF8C818F77813108F0F5
:10183000B6CFE82EF12CA7016FEF70E0CE01059630
:101840000E942322A701BE016B5F7F4FC8010E9447
:101850006B0733243394A4CF332433942FCFCF9208
:10186000DF92EF92FF920F931F93CF93DF931F921C
:10187000CDB7DEB7FC01348521E0231B248721E3AB
:10188000231B29838C010B541F4FBE016F5F7F4FB9
:10189000C8010E94BC0A86E0E82EF12C9AE4C92E09
:1018A00091E0D92EB601C8010E94BC0A882341F0FC
:1018B000F8018481C80ED11CF1E0EF1AF10891F70C
:1018C0000F90DF91CF911F910F91FF90EF90DF90DC
:1018D000CF9008958F929F92AF92BF92CF92DF9256
:1018E000EF92FF920F931F93CF93DF93CDB7DEB7A5
:1018F0006C970FB6F894DEBF0FBECDBF7C01B62E3D
:10190000A72E6A01122F01110DC0DC011C968C91CB
:101910001C97882339F0ED91FC910680F781E02D2A
:10192000C701099580E18983AB82BA828C81807876
:10193000912F9F77892B8C83103109F000E08C81E7
:1019400000FB87F98C83C114D10449F0112339F0CD
:10195000412F50E0B601CE0105960E941A22F701F0
:10196000EF59FF4F80818F3F31F48091AE04909109
:10197000AF040E94A8076701BEE5CB0ED11C60E052
:10198000F60180810E944304D70114968D909D90AA
:10199000AD90BC9017970E94EA056D8B7E8B8F8B64
:1019A000988F898E9A8EAB8EBC8E83ECA82EB12C2C
:1019B0006981C7010E940D078E3FA1F4CE014596B3
:1019C0000E94AB0781110EC061E0F60180810E9488
:1019D0004304C5010197F1F760E0D6018C910E94A4
:1019E0004304E6CFCE0145960E94AB0701E00827ED
:1019F00051F0412F50E04D5F5F4FBE016E5F7F4F52
:101A0000C7010E946B0761E0F60180810E944304D8
:101A1000802F6C960FB6F894DEBF0FBECDBFDF915E
:101A2000CF911F910F91FF90EF90DF90CF90BF90DB
:101A3000AF909F908F900895CF92DF92EF92FF9298
:101A40000F93CF93DF931F92CDB7DEB76C017C016C
:101A500085EBE80EF11CF70186819781892B81F4D3
:101A6000F6018485882351F1E15AFF4F80810E945D
:101A70001A04892B61F5F70186819781892B59F129
:101A8000448150E022853385429FC001439F900DE1
:101A9000529F900D112460817181680F791FCE01D2
:101AA00001960E941A22898190E00F90DF91CF91D8
:101AB0000F91FF90EF90DF90CF90089500E020E02D
:101AC00050E040E062E07AE0C6010E946A0CC60184
:101AD0000E94F70AD0CF8FEF9FEFE7CFCF92DF9230
:101AE000EF92FF920F93CF93DF931F92CDB7DEB7A4
:101AF0006C017C0185EBE80EF11CF7018681978172
:101B0000892B89F186819781892B11F1448150E0DD
:101B100022853385429FC001439F900D529F900DB7
:101B2000112460817181680F791FCE0101960E9496
:101B30001A22F701828593850196628173810E9442
:101B4000AE209387828786819781019797838683CA
:101B5000898190E00F90DF91CF910F91FF90EF90EE
:101B6000DF90CF900895F601848581110DC000E0CB
:101B700020E050E040E062E07AE0C6010E946A0C9A
:101B8000C6010E94F70A07C0E15AFF4F80810E94F8
:101B90001A04892BA9F7F70186819781892B09F00F
:101BA000B5CF8FEF9FEFD6CFEF92FF920F93CF93EA
:101BB000DF937C0125EBE20EF11CF70126813781D2
:101BC000232B41F086819781DF91CF910F91FF9078
:101BD000EF900895FC01248521110DC0EC0100E077
:101BE00050E040E062E07AE00E946A0CCE010E9480
:101BF000F70AF701E7CF815A9F4FFC018081DF91FF
:101C0000CF910F91FF90EF900C941A048F929F92B6
:101C1000AF92BF92CF92DF92EF92FF920F93CF934A
:101C2000DF935C017B01EA01DC011C968C91882327
:101C3000B1F06B01C40ED51ED0E0C0E0EC14FD0481
:101C400061F1D7016D917D01D501ED91FC9101907C
:101C5000F081E02DC5010995C80FD91FEFCFF5011F
:101C6000EF53FF4F8081882329F14330510510F154
:101C700043E050E061E571E0C7010E940D22892B2D
:101C8000C9F4C330D10531F0F70183818D3011F0F3
:101C90008A3081F4C5010E942F0CCE01DF91CF91D3
:101CA0000F91FF90EF90DF90CF90BF90AF909F90FB
:101CB0008F9008956E01C114D104B9F04601F1E18D
:101CC000CF16D10418F080E1882E912CC818D908BD
:101CD00001E009F400E0282DA70161E07AE0C501E8
:101CE0000E946A0CE80CF91CE6CFC5010E94F70AB5
:101CF000D4CFAF92BF92CF92DF92EF92FF920F9329
:101D00001F93CF93DF931F92CDB7DEB77C0169831A
:101D1000FC01848581111BC000E021E0AE014F5F12
:101D20005F4F61E07AE0C7010E946A0CC7010E9420
:101D3000F70A81E090E00F90DF91CF911F910F9112
:101D4000FF90EF90DF90CF90BF90AF900895898182
:101D50006701F4E7CF0ED11CF60110818D3011F030
:101D60008A3069F51123C1F05701F4E6AF0EB11CBA
:101D7000F701EF53FF4F80818823C1F043E050E02B
:101D800061E571E0C5010E940D22892B79F4C7013C
:101D90000E942F0CF6011082F7018585882349F2F5
:101DA000698185E094E00E94B902C3CF00E0212F51
:101DB000A50160E07AE0C7010E946A0CEBCF103108
:101DC00099F401E020E15701F4E6AF0EB11CA50142
:101DD00060E07AE0C7010E946A0C8981F501808386
:101DE00081E0F6018083D8CF91E0910F9083F701D5
:101DF000E10FF11DEC59FF4FF5CFEF92FF920F93DA
:101E00001F93CF93DF93CDB7DEB7C154D1090FB67F
:101E1000F894DEBF0FBECDBF8C01FC018585882301
:101E200031F068E670E085E094E00E94C00278013D
:101E3000FEE0EF0EF11CF80144815581BE016F5F99
:101E40007F4FC8010E94570A892B31F165E571E087
:101E5000CE0101960E942A22892B79F068E571E073
:101E6000CE0101960E942A22892BB1F0BE016F5F3C
:101E70007F4FC7010E943322DECF81E0CF5BDF4F6F
:101E80000FB6F894DEBF0FBECDBFDF91CF911F918B
:101E90000F91FF90EF90089580E0F0CF6F927F92C6
:101EA0008F929F92AF92BF92CF92DF92EF92FF926A
:101EB0000F931F93CF93DF93EC016B01642E5901B5
:101EC00020E0261508F0A6C06DE3CE010E94B902FD
:101ED000F501E080F18021E0C70188278115F4E059
:101EE0009F0709F472C0A0F48115E2E09E0799F102
:101EF0008115F3E09F0709F472C08115914009F73D
:101F0000F80160817181CE010E944F0A21E0D9CF92
:101F10008115E6E09E0709F46DC058F481159540DF
:101F200081F6F80140815181052E000C660B770B7C
:101F30005BC08115E7E09E0709F464C081159840F5
:101F400009F0BFCFF801408151816281738155272B
:101F5000662777273FC0FF24F80180819181A28105
:101F6000B3814701880E991EF401EE19FF0931E093
:101F7000E31AF10858F27080E881F9810190F0814C
:101F8000E02D672D62956F7080E36A3008F087E37B
:101F9000680FCE010995E881F9810190F081E02D6B
:101FA000672D6F7080E36A3008F087E3680FCE0119
:101FB0000995E114F104C1F2E881F9810190F08101
:101FC000E02D6DE2CE010995CFCFF801408151811E
:101FD000628173812AE0CE010E94DB0897CFF8016D
:101FE000408151816281738177FFF4CFCE010E94DD
:101FF00027098CCFF8014081518162817381662766
:102000007727E8CFF8014081042E000C550B660BB2
:10201000770BEACFCE010E94240AC114D104D9F073
:102020008D85882331F06DE670E085E094E00E94B4
:10203000C002CE010E94B40A892BF1F050E040E0CA
:1020400070E060E0CE010E960E94CC1CF601608329
:10205000718382839383CE01DF91CF911F910F9182
:10206000FF90EF90DF90CF90BF90AF909F908F90B8
:102070007F906F900C94FD0E60E070E0CB01E6CF96
:102080001F920F920FB60F9211242F933F934F93ED
:102090005F936F937F938F939F93AF93BF93EF93D0
:1020A000FF9385E094E00E946203FF91EF91BF915E
:1020B000AF919F918F917F916F915F914F913F91E0
:1020C0002F910F900FBE0F901F9018951F920F9297
:1020D0000FB60F9211242F938F939F93EF93FF933B
:1020E000E0911504F09116048081E0911B04F091B9
:1020F0001C0482FD1BC0908180911E048F5F8F7332
:1021000020911F04821741F0E0911E04F0E0EB5F84
:10211000FB4F958F80931E04FF91EF919F918F91BC
:102120002F910F900FBE0F901F9018958081F4CFC4
:102130001F920F920FB60F9211242F933F938F93FC
:102140009F93AF93BF938091820290918302A0915D
:102150008402B09185023091810223E0230F2D3754
:1021600058F50196A11DB11D209381028093820232
:1021700090938302A0938402B0938502809186029B
:1021800090918702A0918802B09189020196A11DC9
:10219000B11D8093860290938702A0938802B0932A
:1021A0008902BF91AF919F918F913F912F910F9095
:1021B0000FBE0F901F90189526E8230F0296A11DC1
:1021C000B11DD2CF1F920F920FB60F9211242F93F1
:1021D0003F934F935F936F937F938F939F93AF93AF
:1021E000BF93EF93FF938091B900887F803609F405
:1021F0004AC0F0F5883209F4A7C018F5803109F417
:102200009BC0B8F4882309F4F9C0883009F494C05D
:10221000FF91EF91BF91AF919F918F917F916F91BE
:102220005F914F913F912F910F900FBE0F901F9094
:102230001895883109F488C0803251F78093DE0305
:1022400014C0803409F49DC040F48033B9F388335E
:10225000F9F68093DE0385ECB0C0803509F485C0C3
:10226000883509F496C0883499F60E94F605D0CFD7
:10227000883909F48CC038F5883729F050F488364D
:1022800011F0803729F683E08093E00310928002FA
:1022900057C0883809F47BC0803919F0803809F0BC
:1022A000B7CF80918002803208F071C0E091800247
:1022B00081E08E0F809380028091BB00F0E0E05AB5
:1022C000FD4F80833DC0803B39F0E0F4803A09F453
:1022D00079C0883A09F09CCF84E08093E0031092A3
:1022E0005F0210925E02E091B603F091B703099588
:1022F00080915E0281110FC081E080935E02109296
:102300003E0209C0803C09F4A6CF883C09F4A3CF63
:10231000883B09F07DCFE0915F0281E08E0F8093D2
:102320005F02F0E0E25CFD4F80818093BB00909102
:102330005F0280915E0229C08091BB038093BB0045
:1023400085EC8093BC0064CF9091DD038091DC0329
:10235000981758F5E091DD0381E08E0F8093DD033F
:10236000F0E0E454FC4F8081E9CFE091DD0381E0AF
:102370008E0F8093DD038091BB00F0E0E454FC4FAE
:1023800080839091DD038091DC039817C8F285E883
:10239000D8CFE091DD0381E08E0F8093DD03809143
:1023A000BB00F0E0E454FC4F80838091DF03811197
:1023B0005CCF81E08093BA0384EA8093BC001092E2
:1023C000E00326CF85EC8093BC001092E00380915F
:1023D0008002803230F4E0918002F0E0E05AFD4F5C
:1023E00010826091800270E0E091B403F091B50337
:1023F00080E692E00995109280020ACF1092DE03E7
:1024000034CF1F920F920FB60F9211240F900FBE70
:102410000F901F901895FC01DC0115964D961496AF
:102420001C921E92139715961C92159712961C9249
:10243000129711961C9211971C9216968A179B0759
:1024400071F711A614A610A617A211AE14AE10AE05
:1024500017AA80E6828385AF0895CF93DF93109209
:1024600008041092070488EE93E0A0E0B0E08093A7
:10247000090490930A04A0930B04B0930C042AE07F
:1024800031E0309306042093050425EC30E03093CE
:1024900012042093110424EC30E0309314042093B0
:1024A000130420EC30E0309316042093150421EC43
:1024B00030E0309318042093170422EC30E030937E
:1024C0001A042093190426EC30E030931C04209366
:1024D0001B0410921E0410921F04109220041092EC
:1024E00021041092A5041092A4048093A604909352
:1024F000A704A093A804B093A9048CE191E0909361
:10250000A3048093A20480E58093AE041092AF04EC
:102510001092F3051092FA0510920106109202062D
:10252000109203061092040681E0809300068093C7
:10253000FD051092FE0592E09093FF058093F20551
:10254000CCE1D2E0D093F705C093F6058CE192E0A0
:102550000E94E3209093FC058093FB05009709F40B
:10256000DBC0FC019E01119221503040E1F784EB69
:1025700090E09093F5058093F40586E090E09093C9
:10258000F9058093F8058091F305882341F061E017
:1025900086E00E94A30460E086E00E944304E2EC2F
:1025A000F2E0E491F0E0EE0FFF1FEE54FD4F859155
:1025B00094919093060680930506E4EAF2E0E49194
:1025C000E093070684EB95E00E940B1286E795E006
:1025D0000E940B128091BE0581110FC084EB95E023
:1025E0009093BD058093BC0588E08093B9058AE08F
:1025F0008093BA0589E08093BB0589EB95E09093C1
:1026000075058093740580918605811112C081E063
:102610008093860586E795E09093850580938405F1
:102620008DE0809381058BE0809382058CE0809320
:10263000830581E895E0909373058093720510926D
:10264000B3041092B20481E08093BC041092BD04E4
:102650004AEF50E060E070E04093B4045093B5045A
:102660006093B6047093B7041092000510920105B0
:1026700010920205109203051092050510920405B0
:102680001092070510920605109209051092080590
:1026900010920B0510920A0510920D0510920C0570
:1026A0002EE231E03093B1042093B00425E235E00E
:1026B000309366052093650520E430E0309368058B
:1026C000209367058093690580936A0510927005D1
:1026D00010926F0510926E0510926D0510926C05A8
:1026E00010926B0593E09093FF0498E090930E0591
:1026F00097E090930F0594E0909310059FEF9093CF
:102700001105909312059093130510922405809360
:102710007105DF91CF9108951092F7051092F6059B
:102720001092F5051092F40528CFCF93DF93CDB723
:10273000DEB72A970FB6F894DEBF0FBECDBF7894F0
:1027400084B5826084BD84B5816084BD85B58260B6
:1027500085BD85B5816085BD80916E008160809367
:102760006E001092810080918100826080938100D0
:1027700080918100816080938100809180008160E0
:10278000809380008091B10084608093B10080913B
:10279000B00081608093B00080917A008460809363
:1027A0007A0080917A00826080937A0080917A002A
:1027B000816080937A0080917A00806880937A00AB
:1027C0001092C1008091F8059091F90597FD08C01D
:1027D00061E00E94A30460E08091F8050E94430438
:1027E00081E08093F3050E94F9046091FA05633358
:1027F00029F12091FB053091FC056150C9F070E092
:102800008FEF92E30E94AE20F9014091F6055091BE
:10281000F705CF01821B930B8417950760F4408165
:10282000469FC001479F900D112490833196EDCFB4
:1028300070E060E0E9CF83E38093FA05E09115044E
:10284000F091160482E08083E0911104F09112046B
:102850001082E0911304F091140480E180831092BF
:102860001D04E0911904F0911A0486E08083E09140
:102870001704F0911804808180618083E09117042F
:10288000F0911804808188608083E0911704F091B2
:102890001804808180688083E0911704F091180407
:1028A00080818F7D80831092930310929203EDE8D4
:1028B000F2E005E013E0F12CE12C41E030E020E013
:1028C0008CE0C82ED12C7724739493EBA92EB12CD5
:1028D00057E7852E912CC901B6010E94C2200097AE
:1028E00011F447257901442309F4E1C0B401621BC6
:1028F000730BD8016D937C9388559F4F8E199F0958
:10290000918380832F5F3F4F0E5F1F4F32962C3392
:10291000310509F710928C0210928B0284EB95E03E
:102920000E94230886E795E00E942308E090740542
:10293000F090750566E9C7010E94000700917205D5
:102940001091730566E9C8010E940007C7010E9443
:10295000D307C8010E94D30764E0C7010E94EC07B7
:1029600064E0C8010E94EC0764EF71E080E090E051
:102970000E94B7056DE672E085E094E00E943D0A92
:1029800063E472E085E094E00E943D0A6CE172E04D
:1029900085E094E00E94C00281E08093BD0460E085
:1029A00080910F050E94A30461E080910E050E94B2
:1029B000A30461E080910E050E94430480911105FB
:1029C0008F3F09F07FC01FB7F89480918A02811170
:1029D00027C0E6ECF2E08491E8EAF2E09491E82F77
:1029E000F0E0EE0FFF1FE057FF4FA591B491EC917F
:1029F000E92321F461E08AE00E94430461E08AE077
:102A00000E94A3048CB580618CBD8CB580648CBDA4
:102A100061E08DE00E94A30461E08BE00E94A304CA
:102A200080918A028F5F80938A021FBF00E020E0BE
:102A300050E040E06FEE7EEB80EB94E00E946A0C89
:102A4000182F8091100587FD19C061E00E94A30432
:102A500061E0809110050E94430460E080911005C0
:102A60000E9443046AE070E080E090E00E94B705B5
:102A700061E0809110050E94430411E00E94EA0584
:102A80006093000570930105809302059093030500
:102A900068EE73E080E090E00E94B705111125C058
:102AA00064ED71E085E094E00E943D0AFFCF845917
:102AB0009F4F8E199F09D8018D939C93C501821B4E
:102AC000930B1ECF61E00E94A30460E0809111058A
:102AD0000E94430460E0809113050E94A30461E01A
:102AE000809112050E94A304A1CF60ED71E085E002
:102AF00094E00E943D0A80E093E09E838D831982DA
:102B00001A821B821C82F090BC04F11005C061E0A7
:102B100080EB94E00E9490076AE970E080EB94E01B
:102B20000E94C0028E010F5F1F4F9E012B5F3F4F1F
:102B300041E070E060E080EB94E00E944E0FF11005
:102B400005C060E080EB94E00E9490078EE591E084
:102B50000E94280A1091BC040091BD041092BD048B
:102B600063EB70E085E094E00E943D0A111107C01C
:102B70008091BC04813019F081E08093BC046FEA3D
:102B800070E080EB94E00E943D0A80EB94E00E94AC
:102B9000B40A892BA9F065E571E08EEB94E00E9400
:102BA0002A22892B69F068E571E08EEB94E00E949F
:102BB0002A22892B29F08EEB94E00E94280AE5CF87
:102BC000111105C060E080EB94E00E9490076EE96F
:102BD00070E085E094E00E943D0A0093BD046DE83A
:102BE00071E085E094E00E943D0A6AE471E085E0CE
:102BF00094E00E943D0A85E094E00E94240A10922D
:102C0000BD0419821A821B821C82F090BC04F11050
:102C100005C061E080EB94E00E94900764EC70E0F6
:102C200080EB94E00E94C00210E000E030E020E081
:102C300040E0BE016F5F7F4F80EB94E00E944E0F3B
:102C4000F11005C060E080EB94E00E94900789815C
:102C50009A81AB81BC81892B8A2B8B2B39F464EF51
:102C600071E080E090E00E94B705CBCF6BE271E0AD
:102C700085E094E00E943D0A1091BC04111103C04C
:102C800081E08093BC0462ED70E080EB94E00E94F0
:102C90003D0A80EB94E00E94B40A69E771E08EEB94
:102CA00094E00E942A227C0180EB94E00E94FD0EB9
:102CB000111105C060E080EB94E00E949007F7FCE2
:102CC00025C06FE071E085E094E00E943D0AF0903D
:102CD000BC04F11003C081E08093BC046FE771E095
:102CE00080EB94E00E944F0A10E000E030E020E02A
:102CF00040E070E060E080EB94E00E944E0FF11045
:102D000005C060E080EB94E00E94900767EF70E000
:102D100085E094E00E943D0A60E080EB94E00E9430
:102D2000900768ED70E085E094E00E943D0ABDE701
:102D30002B2EB3E03B2E4091F6055091F70570E045
:102D400060E08091FB059091FC050E942322409158
:102D5000920350919303052E000C660B770B77FFBF
:102D600011C285E094E00E94270985E094E00E946A
:102D7000240A809192039091930301969093930378
:102D80008093920365E070E00E94C220892B09F0D5
:102D9000DFC1FDE8EF2EF2E0FF2EA5E06A2EA3E0F2
:102DA0007A2EF301019111913F0120E040E06FEF95
:102DB000C8010E94940120E040E06FEFD7018D919F
:102DC0009D917D010E94940120E040E06FEFC801D9
:102DD000CC970E9494012614370419F70E94F90435
:102DE00062E370E080E090E00E94B70580E00E941E
:102DF000A8026B017C01EDE8AE2EE2E0BE2E05E0FC
:102E000013E0F801819091908F01B701A601C401F0
:102E1000CC970E943702B701A601C4010E94370275
:102E2000B701A601D5018D919D915D010E943702E8
:102E3000B3E00D311B0729F70E94F90462E370E04B
:102E400080E090E00E94B7057DE8A72E72E0B72EE3
:102E500005E013E0F801819091908F01B701A60180
:102E6000C401CC970E943702B701A601C4010E9499
:102E70003702B701A601D5018D919D915D010E9498
:102E80003702E5E3F3E0E017F10721F70E94F904C8
:102E900062E370E080E090E00E94B7050DE812E088
:102EA00065E0462E63E0562ED201AD90BD902D0117
:102EB000B701A601C501CC970E943702B701A60150
:102EC000C5010E943702B701A601F80181919191D5
:102ED0008F010E943702FDE44F16F3E05F0621F7F1
:102EE0000E94F90462E370E080E090E00E94B70580
:102EF0005DE8A52E52E0B52E05E013E0D8018D90D7
:102F00009D908D01B701A601C401CC970E943702A4
:102F1000B701A601C4010E943702B701A601F5015D
:102F2000819191915F010E943702F3E005361F07FE
:102F300029F70E94F90462E370E080E090E00E94CB
:102F4000B7054DE8A42E42E0B42E05E013E0D80109
:102F50008D909D908D01B701A601C401CC970E9470
:102F60003702B701A601C4010E943702B701A601CA
:102F7000F501819191915F010E94370206151705B5
:102F800031F70E94F90466E970E080E090E00E9469
:102F9000B7058FEF0E94A8026B017C0110E000E0F2
:102FA0005801F6E7AF0EB11CF501EB5FFC4F8080D6
:102FB0009180B701A601C401CC970E943702B701E6
:102FC000A601C4010E943702F501E357FD4FB70186
:102FD000A601808191810E94370202501109083EAA
:102FE0008FEF1807E9F60E94F90462E370E080E0D1
:102FF00090E00E94B7053DE7632E33E0732EA5E015
:10300000B3E0B887AF835D018301F80180819181CE
:10301000B701A601CC970E943702B701A601D801DB
:103020009E918E918D010E943702B701A601F50194
:10303000929182915F010E9437024016510629F752
:103040000E94F90462E370E080E090E00E94B7051E
:1030500010E000E05801F6E7AF0EB11CF501EB5FA0
:10306000FC4F80809180B701A601C401CC970E94DB
:103070003702B701A601C4010E943702F501E357E8
:10308000FD4FB701A601808191810E943702025055
:103090001109083B8FEF1807E9F60E94F90462E373
:1030A00070E080E090E00E94B70510E000E0580179
:1030B00096E7A90EB11CF501EB5FFC4F8080918073
:1030C000B701A601C401CC970E943702B701A6013F
:1030D000C4010E943702F501E357FD4FB701A60175
:1030E000808191810E94370202501109003AAFEFAE
:1030F0001A07E9F60E94F90462E370E080E090E0CC
:103100000E94B705F301129102913F01B701A60198
:10311000C801CC970E943702B701A601C8010E94DE
:103120003702B701A601AF81B8859E918E91B8870D
:10313000AF830E943702E5E0F3E0E615F70511F7EB
:103140000E94F90462E370E080E090E00E94B7051D
:10315000ADE7B3E0E4E11D92EA95E9F710E000E0A5
:1031600024EFE22EFF24F394F1E0EF1AF10804318A
:103170001105B8F480917E03813451F40F301105AC
:10318000B9F50FC02AE085E094E00E94DB08EDCDA0
:103190008734A1F38D3491F3813529F5033111057D
:1031A00039F5F801E358FC4F10820115110509F4B7
:1031B000C3C280917D03813209F0BEC2A801415093
:1031C0005109FA01E358FC4F608190E080E0292F1B
:1031D00030E024173507D0F523583C4FD9012C9106
:1031E000820F9F5FF4CF8234E1F405301105C9F2FC
:1031F00080EB94E00E94D40D892BE9F080EB94E001
:103200000E946E0D813211F410E000E0F801E358E5
:10321000FC4F80830F5F1F4F94EFE92EFF24F39440
:10322000E7CF833421F40630110511F7BACF8C347F
:1032300009F4A4CFDDCFE114F10409F4B2CF61E0C9
:1032400070E080E090E00E94B7058ECF809568170F
:1032500009F451C061E971E085E094E00E944F0AF1
:103260000F5F1F4F6801F12CE12C0DE713E0812C5B
:10327000912C540126013701B1E04B1A5108610825
:1032800071088C149D04AE04BF0408F051C26BE9B0
:1032900072E085E094E00E94C002F8014081403174
:1032A00048F469E972E085E094E00E94C002D80128
:1032B0004C914F7050E070E060E020E185E094E0D8
:1032C0000E94DB08B1E0CB16D104E104F10459F00F
:1032D00084149504A604B70431F067E972E085E030
:1032E00094E00E94C002EFEF8E1A9E0AAE0ABE0A58
:1032F0000F5F1F4FC6CF002309F41EC280917E03CB
:10330000833409F044C0F0907F0300918003109152
:10331000810360EB71E085E094E00E944F0AFFE0DA
:10332000FF1530F066EB71E085E094E00E944F0AF3
:103330004F2D50E070E060E020E185E094E00E94D5
:10334000DB08003130F466EB71E085E094E00E9428
:103350004F0A402F50E070E060E020E185E094E00B
:103360000E94DB08103130F466EB71E085E094E0F8
:103370000E944F0A412F50E070E060E020E185E0BC
:1033800094E00E94DB0885E094E00E94240A80918A
:103390007E03823409F05FC010917F0310530091C7
:1033A000800368EB71E085E094E00E944F0A412FB2
:1033B00050E070E060E02AE085E094E00E94DB08E5
:1033C000003369F180EC91E00E94280A113009F085
:1033D000C0C18DE8C82E82E0D82E05E013E0D801E8
:1033E000ED90FD908D0120E040E06FEFC7010E945D
:1033F000940120E040E06FEFF601819191916F011F
:103400000E94940120E040E06FEFC701CC970E943A
:1034100094012016310619F70E94F9041CC089ECAA
:1034200091E00E94280A63ED71E085E094E00E943B
:103430004F0A64E080917405909175050E94EC0735
:1034400064E080917205909173050E94EC071092E0
:103450008C0210928B0280917E038C3409F04AC05A
:1034600040907F03509080036090810370908203AE
:103470008090830390908403A0908503B09086038E
:10348000C0908703D0908803E0908903F0908A036E
:1034900061E072E085E094E00E944F0A6FE072E024
:1034A00085E094E00E944F0A44E050E0C301B2017D
:1034B0000E944C0969E085E094E00E94B90265E150
:1034C00072E085E094E00E944F0A44E050E0C501BC
:1034D000B4010E944C0969E085E094E00E94B902C1
:1034E00044E050E0C701B6010E944C098BE192E034
:1034F0000E94280A80917E038134F1F540907F0379
:1035000050908003609081037090820380908303C9
:1035100090908403A0908503B0908603C0908703A9
:10352000D0908803E0908903F0908A0363E272E010
:1035300085E094E00E944F0A42E050E0C301B201EE
:103540000E944C0969E085E094E00E94B90242E0E3
:1035500050E0C501B4010E944C0969E085E094E0A7
:103560000E94B90242E050E0C701B6010E944C0936
:1035700085E094E00E94240A80917E038D34F1F569
:1035800040907F035090800360908103709082038D
:103590008090830390908403A0908503B09086036D
:1035A000C0908703D0908803E0908903F0908A034D
:1035B0006AE272E085E094E00E944F0A42E050E047
:1035C000C301B2010E944C0969E085E094E00E94C9
:1035D000B90242E050E0C501B4010E944C0969E023
:1035E00085E094E00E94B90242E050E0C701B601D4
:1035F0000E944C0985E094E00E94240A80917E0399
:103600008734F1F540907F035090800360908103F0
:10361000709082038090830390908403A090850330
:10362000B0908603C0908703D0908803E090890310
:10363000F0908A036FE272E085E094E00E944F0A06
:1036400042E050E0C301B2010E944C0969E085E00C
:1036500094E00E94B90242E050E0C501B4010E942A
:103660004C0969E085E094E00E94B90242E050E034
:10367000C701B6010E944C0985E094E00E94240A2B
:1036800080917E03813509F057C040907F035090B0
:1036900080036090810370908203809083039090F8
:1036A0008403A0908503B0908603C0908703D090D8
:1036B0008803E0908903F0908A0380918B039091B6
:1036C0008C03A0918D03B0918E038F839887A98777
:1036D000BA8765E372E085E094E00E944F0A42E019
:1036E00050E0C301B2010E944C0969E085E094E01A
:1036F0000E94B90242E050E0C501B4010E944C09A9
:1037000069E085E094E00E94B90242E050E0C70120
:10371000B6010E944C0969E085E094E00E94B9027C
:1037200042E050E06F81788589859A850E944C0936
:1037300085E094E00E94240AA0E0B0E0AB2B09F4FD
:10374000FACA0E944E03882309F4F5CA0E940000B9
:10375000F2CA1230B1F420E04FEF60E08BE390E06A
:103760000E94940120E04FEF60E087E790E00E9424
:10377000940120E04FEF60E083EB90E00E94940121
:103780004BCE1330A9F410E000E08091F405909145
:10379000F5050817190708F05ECE2FEF40E060E04E
:1037A000C8010E9494010E94F9040F5F1F4FEDCFE2
:1037B0001430A9F410E000E08091F4059091F50533
:1037C0000817190708F047CE2FEF4FEF60E0C80148
:1037D0000E9494010E94F9040F5F1F4FEDCF153036
:1037E00009F09FC069ED71E085E094E00E944F0A06
:1037F000E0907405F09075056FEFC7010E94000717
:1038000000917205109173056FEFC8010E940007C7
:1038100062E0C7010E94EC07C8010E94D307F1E0F3
:10382000F0938C0218CE62EE71E085E094E00E9485
:103830004F0AE0907405F09075056FEFC7010E9484
:10384000000700917205109173056FEFC8010E9487
:103850000007C7010E94D30762E0C8010E94EC077D
:1038600081E080938B02F7CD8111F5CD63EF71E09C
:1038700085E094E00E944F0AE0907405F090750591
:103880006DE7C7010E940007009172051091730552
:103890006FEFC8010E94000762E0C7010E94EC07B9
:1038A00067C0173009F0D7CD6BEF71E085E094E089
:1038B0000E944F0A90918C0280918B0291111BC043
:1038C0008111C9CDE0907405F09075056FEFC701C7
:1038D0000E94000700917205109173056FEFC801F7
:1038E0000E94000762E0C7010E94EC0762E0C80185
:1038F0000E94EC07B0CD8111AECD63EF71E085E0A1
:1039000094E00E944F0AE0907405F09075056FEF07
:10391000C7010E94000700917205109173056DE7C1
:10392000B8CF163009F47FCF183009F0BACF6CEE5B
:1039300071E085E094E00E944F0A90918C028091A2
:103940008B02911191CF811186CDE0907405F0909A
:1039500075056FEFC7010E94000700917205109175
:1039600073056FEFC8010E940007C7010E94D307CB
:10397000C8010E94D3076FCD8091FB059091FC0593
:103980000E947F218091F8059091F90597FD03C071
:1039900060E00C94A3040895B0E0A0E0E2EDFCE147
:1039A0000C94511F5C016B017A016115710519F0CE
:1039B000FB0191838083E114F10451F0C701029768
:1039C000839730F040E030E020E090E072C05E018C
:1039D000E5012196F5011081812F90E00E94E31D01
:1039E000892BA9F71D3201F52196F501118101E01E
:1039F000E114F10409F4DAC0F0E1EF16F10409F082
:103A000082C0103359F488818F7D883509F076C0E3
:103A1000198122960260F0E1EF2EF12C812C912C7D
:103A2000A12C88E0B82E8CC01B3221F4E50122962F
:103A3000F501118100E0DCCFEAE0EE16F10409F4B3
:103A4000BBC0F0E1EF16F10409F06DC0E7CF78E0FC
:103A5000E72EF12C812C912CA12C60E1B62E70C0A8
:103A60003FE9310F3A3128F439EA332E80C021E0A2
:103A70009AC0302F3170C114D10431F0222309F1E2
:103A80002197F601D183C08327FF21C060E070E059
:103A900080E090E8311104C06FEF7FEF8FEF9FE778
:103AA00022E230E03093090620930806462F372F94
:103AB000282F642F732F822FCDB7DEB7E1E10C944E
:103AC0006D1F01FF04C02297F601D183C083332309
:103AD00041F090958095709561957F4F8F4F9F4FE6
:103AE000E5CF97FFE3CF82E290E0909309068093C1
:103AF00008066FEF7FEF8FEF9FE7D8CF10E3E11459
:103B0000F10409F4A4CF28E0E216F10409F4A2CFED
:103B10000CF092CF812C912CA12CE0E4BE2E82E0FF
:103B2000E816F10469F060E070E080E090E8970149
:103B30000F2C000C440B550B0E94231F49015A0106
:103B400020E060E070E0CB0127010F2C000C66083C
:103B50007708FE0150ED352E310E39E0331540F473
:103B60003FEB310F3A3108F07BCF49EC342E310E68
:103B70003E141F040CF07DCF27FD15C08616970656
:103B8000A806B90678F0A30192010E94131F630DE5
:103B9000711D811D911D61307105810520E892071D
:103BA00008F465CF2FEF21961081D3CF103309F49D
:103BB0002ACF2AE0E22EF12C9CEC892E982CA82CFE
:103BC0009CE0B92EBDCF91110C94EC1D803219F000
:103BD00089508550C8F708959927882708950E942D
:103BE000311E08F481E00895E89409C097FB3EF483
:103BF00090958095709561957F4F8F4F9F4F99233A
:103C0000A9F0F92F96E9BB279395F69587957795B7
:103C10006795B795F111F8CFFAF4BB0F11F460FF77
:103C20001BC06F5F7F4F8F4F9F4F16C0882311F0CF
:103C300096E911C0772321F09EE8872F762F05C0E3
:103C4000662371F096E8862F70E060E02AF09A957E
:103C5000660F771F881FDAF7880F9695879597F973
:103C60000895990F0008550FAA0BE0E8FEEF16160D
:103C70001706E807F907C0F012161306E407F50760
:103C800098F0621B730B840B950B39F40A2661F0D4
:103C9000232B242B252B21F408950A2609F4A14077
:103CA000A6958FEF811D811D08950E94681E0C94BA
:103CB000D91E0E94CB1E38F00E94D21E20F0952300
:103CC00011F00C94C21E0C94C81E11240C940D1FEC
:103CD0000E94EA1E70F3959FC1F3950F50E0551FA7
:103CE000629FF001729FBB27F00DB11D639FAA2751
:103CF000F00DB11DAA1F649F6627B00DA11D661FA0
:103D0000829F2227B00DA11D621F739FB00DA11DC0
:103D1000621F839FA00D611D221F749F3327A00D7A
:103D2000611D231F849F600D211D822F762F6A2F16
:103D300011249F5750409AF0F1F088234AF0EE0F7B
:103D4000FF1FBB1F661F771F881F91505040A9F7A8
:103D50009E3F510580F00C94C21E0C940D1F5F3FD6
:103D6000E4F3983ED4F3869577956795B795F795E4
:103D7000E7959F5FC1F7FE2B880F911D969587955C
:103D800097F9089597F99F6780E870E060E00895DB
:103D90009FEF80EC089500240A9416161706180663
:103DA0000906089500240A9412161306140605063F
:103DB0000895092E0394000C11F4882352F0BB0FD0
:103DC00040F4BF2B11F460FF04C06F5F7F4F8F4F33
:103DD0009F4F089557FD9058440F551F59F05F3F6E
:103DE00071F04795880F97FB991F61F09F3F79F01D
:103DF00087950895121613061406551FF2CF46959F
:103E0000F1DF08C0161617061806991FF1CF869520
:103E10007105610508940895E894BB276627772704
:103E2000CB0197F90895DB018F939F930E94451F63
:103E3000BF91AF91A29F800D911DA39F900DB29F46
:103E4000900D11240895A1E21A2EAA1BBB1BFD019F
:103E50000DC0AA1FBB1FEE1FFF1FA217B307E40769
:103E6000F50720F0A21BB30BE40BF50B661F771FC1
:103E7000881F991F1A9469F76095709580959095A1
:103E80009B01AC01BD01CF0108950E94871FA59F32
:103E9000900DB49F900DA49F800D911D1124089545
:103EA0002F923F924F925F926F927F928F929F924A
:103EB000AF92BF92CF92DF92EF92FF920F931F9338
:103EC000CF93DF93CDB7DEB7CA1BDB0B0FB6F894E9
:103ED000DEBF0FBECDBF09942A88398848885F8429
:103EE0006E847D848C849B84AA84B984C884DF809A
:103EF000EE80FD800C811B81AA81B981CE0FD11D7E
:103F00000FB6F894DEBF0FBECDBFED010895A29F9E
:103F1000B001B39FC001A39F700D811D1124911D9D
:103F2000B29F700D811D1124911D08955058BB271B
:103F3000AA270E94AE1F0C94D91E0E94CB1E38F0F7
:103F40000E94D21E20F039F49F3F19F426F40C94FD
:103F5000C81E0EF4E095E7FB0C94C21EE92F0E94E8
:103F6000EA1E58F3BA17620773078407950720F013
:103F700079F4A6F50C940C1F0EF4E0950B2EBA2FD5
:103F8000A02D0B01B90190010C01CA01A00111245F
:103F9000FF27591B99F0593F50F4503E68F11A160B
:103FA000F040A22F232F342F4427585FF3CF46959C
:103FB00037952795A795F0405395C9F77EF41F16BE
:103FC000BA0B620B730B840BBAF09150A1F0FF0F88
:103FD000BB1F661F771F881FC2F70EC0BA0F621F74
:103FE000731F841F48F4879577956795B795F79564
:103FF0009E3F08F0B0CF9395880F08F09927EE0FF9
:104000009795879508950E9417200C94D91E0E94B9
:10401000D21E58F00E94CB1E40F029F45F3F29F0D9
:104020000C94C21E51110C940D1F0C94C81E0E94BA
:10403000EA1E68F39923B1F3552391F3951B550BB1
:10404000BB27AA2762177307840738F09F5F5F4F6B
:10405000220F331F441FAA1FA9F335D00E2E3AF0AA
:10406000E0E832D091505040E695001CCAF72BD0C2
:10407000FE2F29D0660F771F881FBB1F2617370713
:104080004807AB07B0E809F0BB0B802DBF01FF2745
:1040900093585F4F3AF09E3F510578F00C94C21E42
:1040A0000C940D1F5F3FE4F3983ED4F3869577950B
:1040B0006795B795F7959F5FC9F7880F911D9695FE
:1040C000879597F90895E1E0660F771F881FBB1F5A
:1040D000621773078407BA0720F0621B730B840B07
:1040E000BA0BEE1F88F7E09508950E94F21E88F043
:1040F0009F5798F0B92F9927B751B0F0E1F0660FAC
:10410000771F881F991F1AF0BA95C9F714C0B130EC
:1041100091F00E940C1FB1E008950C940C1F672FC2
:10412000782F8827B85F39F0B93FCCF3869577951B
:104130006795B395D9F73EF4909580957095619504
:104140007F4F8F4F9F4F08950E94311E08F48FEFCD
:1041500008950E94311E880B990B0895AA1BBB1B62
:1041600051E107C0AA1FBB1FA617B70710F0A61B77
:10417000B70B881F991F5A95A9F780959095BC0198
:10418000CD01089597FB072E16F4009407D077FD14
:1041900009D00E94AE2007FC05D03EF49095819591
:1041A0009F4F0895709561957F4F08950E94871FD6
:1041B000B7FF0895821B930B0895EE0FFF1F059024
:1041C000F491E02D09940F931F93CF93DF938230E6
:1041D000910510F482E090E0E0910C06F0910D065C
:1041E00030E020E0B0E0A0E0309799F421153105EF
:1041F00009F44AC0281B390B24303105D8F58A81CF
:104200009B816115710589F1FB0193838283FE0116
:1042100011C0408151810281138148175907E0F094
:104220004817590799F4109761F012960C9312975A
:1042300013961C933296CF01DF91CF911F910F916E
:10424000089500930C0610930D06F4CF2115310547
:1042500051F04217530738F0A901DB019A01BD0163
:10426000DF01F801C1CFEF01F9CF90930D068093E4
:104270000C06CDCFFE01E20FF31F819391932250E4
:10428000310939832883D7CF20910A0630910B0654
:10429000232B41F4209102013091030130930B064E
:1042A00020930A062091000130910101211531056A
:1042B00041F42DB73EB74091040150910501241BF4
:1042C000350BE0910A06F0910B06E217F307A0F414
:1042D0002E1B3F0B2817390778F0AC014E5F5F4F5C
:1042E0002417350748F04E0F5F1F50930B0640937D
:1042F0000A06819391939FCFF0E0E0E09CCFCF93AB
:10430000DF930097E9F0FC01329713821282A091AB
:104310000C06B0910D06ED0130E020E01097A1F4FD
:1043200020813181820F931F20910A0630910B0664
:104330002817390709F061C0F0930B06E0930A06CD
:10434000DF91CF910895EA01CE17DF07E8F54A81A2
:104350005B819E0141155105B1F7E901FB83EA83B9
:1043600049915991C40FD51FEC17FD0761F4808165
:1043700091810296840F951FE90199838883828138
:1043800093819B838A83F0E0E0E012968D919C916B
:1043900013970097B9F52D913C911197CD01029695
:1043A000820F931F20910A0630910B0628173907B8
:1043B00039F6309751F510920D0610920C06B09315
:1043C0000B06A0930A06BCCFD383C28340815181E0
:1043D000840F951FC817D90761F44E5F5F4F88811E
:1043E0009981480F591F518340838A819B81938310
:1043F00082832115310509F0B0CFF0930D06E093CB
:104400000C069ECFFD01DC01C0CF13821282D7CFF4
:1044100081E090E0F8940C943A22FB01DC0104C0A6
:104420008D910190801921F441505040C8F7881BAC
:10443000990B0895FB01DC0102C001900D924150DF
:104440005040D8F70895DC0101C06D9341505040B1
:10445000E0F70895FB01DC018D91019080190110B6
:10446000D9F3990B0895FB01DC0101900D92002016
:10447000E1F7089511E0C9E6D1E004C0FE010E9411
:0E448000DD202196CA36D107C9F7F894FFCF88
:10448E0000000E068000000000008403E402110309
:10449E00D103420320033403000000007E065106C0
:1044AE00D00727064A063706280600000000790EB8
:1044BE00060ED0078607D40D6E0D1C0D90076E618B
:1044CE006E00696E66006F7666000D0A4F4B0D0A20
:1044DE00002B2B2B004F4B004552524F5200526572
:1044EE007175657374696E6720426C756566727559
:1044FE00697420696E666F3A00302E362E36004192
:10450E00542B48574D6F64654C45443D4D4F4445C3
:10451E0000436865636B73756D206D69736D6174AF
:10452E00636820696E207061636B6574203A2000A9
:10453E005247422023003000427574746F6E200083
:10454E002070726573736564002072656C656173AB
:10455E006564002053746F700020466F727761722D
:10456E006400204261636B77617264002052696758
:10457E00687400536C6964696E6700204C656674DC
:10458E0000475053204C6F636174696F6E09004C85
:10459E0061743A20004C6F6E3A2000206D65746590
:1045AE00727300416363656C09004D6167090047D2
:0C45BE0079726F090051756174090000EA
:00000001FF
